{
    "contractName": "RealEstate",
    "abi": [
        {
            "inputs": [],
            "stateMutability": "nonpayable",
            "type": "constructor"
        },
        {
            "anonymous": false,
            "inputs": [
                {
                    "indexed": false,
                    "internalType": "uint256",
                    "name": "propertyId",
                    "type": "uint256"
                },
                {
                    "indexed": false,
                    "internalType": "string",
                    "name": "name",
                    "type": "string"
                },
                {
                    "indexed": false,
                    "internalType": "string",
                    "name": "location",
                    "type": "string"
                },
                {
                    "indexed": false,
                    "internalType": "uint256",
                    "name": "price",
                    "type": "uint256"
                },
                {
                    "indexed": false,
                    "internalType": "string",
                    "name": "imageURL",
                    "type": "string"
                },
                {
                    "indexed": false,
                    "internalType": "string",
                    "name": "description",
                    "type": "string"
                },
                {
                    "indexed": false,
                    "internalType": "address",
                    "name": "owner",
                    "type": "address"
                }
            ],
            "name": "PropertyAdded",
            "type": "event"
        },
        {
            "anonymous": false,
            "inputs": [
                {
                    "indexed": false,
                    "internalType": "uint256",
                    "name": "propertyId",
                    "type": "uint256"
                },
                {
                    "indexed": false,
                    "internalType": "address",
                    "name": "newOwner",
                    "type": "address"
                }
            ],
            "name": "PropertyBought",
            "type": "event"
        },
        {
            "anonymous": false,
            "inputs": [
                {
                    "indexed": false,
                    "internalType": "uint256",
                    "name": "propertyId",
                    "type": "uint256"
                },
                {
                    "indexed": false,
                    "internalType": "uint256",
                    "name": "price",
                    "type": "uint256"
                }
            ],
            "name": "PropertyListedForSale",
            "type": "event"
        },
        {
            "anonymous": false,
            "inputs": [
                {
                    "indexed": false,
                    "internalType": "uint256",
                    "name": "propertyId",
                    "type": "uint256"
                }
            ],
            "name": "PropertyModified",
            "type": "event"
        },
        {
            "anonymous": false,
            "inputs": [
                {
                    "indexed": false,
                    "internalType": "uint256",
                    "name": "propertyId",
                    "type": "uint256"
                }
            ],
            "name": "PropertyRemovedFromSale",
            "type": "event"
        },
        {
            "inputs": [
                {
                    "internalType": "string",
                    "name": "_name",
                    "type": "string"
                },
                {
                    "internalType": "string",
                    "name": "_location",
                    "type": "string"
                },
                {
                    "internalType": "uint256",
                    "name": "_price",
                    "type": "uint256"
                },
                {
                    "internalType": "string",
                    "name": "_imageURL",
                    "type": "string"
                },
                {
                    "internalType": "string",
                    "name": "_description",
                    "type": "string"
                }
            ],
            "name": "addProperty",
            "outputs": [],
            "stateMutability": "nonpayable",
            "type": "function"
        },
        {
            "inputs": [],
            "name": "admin",
            "outputs": [
                {
                    "internalType": "address",
                    "name": "",
                    "type": "address"
                }
            ],
            "stateMutability": "view",
            "type": "function"
        },
        {
            "inputs": [
                {
                    "internalType": "uint256",
                    "name": "_propertyId",
                    "type": "uint256"
                }
            ],
            "name": "buyProperty",
            "outputs": [],
            "stateMutability": "payable",
            "type": "function"
        },
        {
            "inputs": [
                {
                    "internalType": "uint256",
                    "name": "_propertyId",
                    "type": "uint256"
                }
            ],
            "name": "getProperty",
            "outputs": [
                {
                    "internalType": "string",
                    "name": "",
                    "type": "string"
                },
                {
                    "internalType": "string",
                    "name": "",
                    "type": "string"
                },
                {
                    "internalType": "uint256",
                    "name": "",
                    "type": "uint256"
                },
                {
                    "internalType": "string",
                    "name": "",
                    "type": "string"
                },
                {
                    "internalType": "string",
                    "name": "",
                    "type": "string"
                },
                {
                    "internalType": "address",
                    "name": "",
                    "type": "address"
                },
                {
                    "internalType": "bool",
                    "name": "",
                    "type": "bool"
                }
            ],
            "stateMutability": "view",
            "type": "function"
        },
        {
            "inputs": [
                {
                    "internalType": "uint256",
                    "name": "_propertyId",
                    "type": "uint256"
                },
                {
                    "internalType": "uint256",
                    "name": "_price",
                    "type": "uint256"
                }
            ],
            "name": "listPropertyForSale",
            "outputs": [],
            "stateMutability": "nonpayable",
            "type": "function"
        },
        {
            "inputs": [
                {
                    "internalType": "uint256",
                    "name": "_propertyId",
                    "type": "uint256"
                },
                {
                    "internalType": "string",
                    "name": "_name",
                    "type": "string"
                },
                {
                    "internalType": "string",
                    "name": "_location",
                    "type": "string"
                },
                {
                    "internalType": "uint256",
                    "name": "_price",
                    "type": "uint256"
                },
                {
                    "internalType": "string",
                    "name": "_imageURL",
                    "type": "string"
                },
                {
                    "internalType": "string",
                    "name": "_description",
                    "type": "string"
                }
            ],
            "name": "modifyPropertyDetails",
            "outputs": [],
            "stateMutability": "nonpayable",
            "type": "function"
        },
        {
            "inputs": [
                {
                    "internalType": "uint256",
                    "name": "",
                    "type": "uint256"
                }
            ],
            "name": "properties",
            "outputs": [
                {
                    "internalType": "string",
                    "name": "name",
                    "type": "string"
                },
                {
                    "internalType": "string",
                    "name": "location",
                    "type": "string"
                },
                {
                    "internalType": "uint256",
                    "name": "price",
                    "type": "uint256"
                },
                {
                    "internalType": "string",
                    "name": "imageURL",
                    "type": "string"
                },
                {
                    "internalType": "string",
                    "name": "description",
                    "type": "string"
                },
                {
                    "internalType": "address payable",
                    "name": "owner",
                    "type": "address"
                },
                {
                    "internalType": "bool",
                    "name": "isAvailable",
                    "type": "bool"
                }
            ],
            "stateMutability": "view",
            "type": "function"
        },
        {
            "inputs": [],
            "name": "propertyCount",
            "outputs": [
                {
                    "internalType": "uint256",
                    "name": "",
                    "type": "uint256"
                }
            ],
            "stateMutability": "view",
            "type": "function"
        },
        {
            "inputs": [
                {
                    "internalType": "uint256",
                    "name": "_propertyId",
                    "type": "uint256"
                }
            ],
            "name": "removePropertyFromSale",
            "outputs": [],
            "stateMutability": "nonpayable",
            "type": "function"
        }
    ],
    "bytecode": "60808060405234602757600280546001600160a01b031916331790556113da908161002c8239f35b5f80fdfe60806040526004361015610011575f80fd5b5f3560e01c80630f55415b1461113e5780631f476a76146110c557806332665ffb14610fed578063634a015c14610a595780636fa830a6146108a5578063c361a33514610888578063cdb962441461016f578063f7b10808146100a85763f851a4401461007c575f80fd5b346100a4575f3660031901126100a4576002546040516001600160a01b039091168152602090f35b5f80fd5b346100a45760203660031901126100a4576004355f525f60205261012260405f206100d2816112b8565b9060ff6101516100e4600184016112b8565b9261014360028201546100f9600384016112b8565b610130600561010a600487016112b8565b950154976040519a8b9a60e08c5260e08c01906111cb565b908a820360208c01526111cb565b91604089015287820360608901526111cb565b9085820360808701526111cb565b9160018060a01b03811660a085015260a01c16151560c08301520390f35b346100a45760a03660031901126100a4576004356001600160401b0381116100a45761019f90369060040161122b565b6024356001600160401b0381116100a4576101be90369060040161122b565b90604435916064356001600160401b0381116100a4576101e290369060040161122b565b926084356001600160401b0381116100a45761020290369060040161122b565b938351156108535782511561081a5781156107d5576001545f1981146107c1576001018060015560405190610236826111ef565b8582526020820191858352604081018581526060820185815260808301918a835260a084019533875260c0850195600187525f525f60205260405f2094518051906001600160401b0382116105735781906102918854611280565b601f8111610771575b50602090601f831160011461070e575f92610703575b50508160011b915f199060031b1c19161785555b51805160018601916001600160401b0382116105735781906102e68454611280565b601f81116106b3575b50602090601f8311600114610650575f92610645575b50508160011b915f199060031b1c19161790555b51600284015551805160038401916001600160401b0382116105735781906103418454611280565b601f81116105f5575b50602090601f8311600114610592575f92610587575b50508160011b915f199060031b1c19161790555b51805160048301916001600160401b038211610573576103948354611280565b601f811161052e575b50602090601f831160011461049b57936104779693836104859a97946005947ffa2aa14986556014428784e34ec912e4f5290b4965857b8455f2b3915ab0a49b9f9b985f92610490575b50508160011b915f199060031b1c19161790555b92519201805491516001600160a81b03199092166001600160a01b03939093169290921790151560a01b60ff60a01b1617905560015460405190815260e06020820181905290978897610464929091610456918a01906111cb565b9088820360408a01526111cb565b91606087015285820360808701526111cb565b9083820360a08501526111cb565b3360c08301520390a1005b015190508f806103e7565b90601f19831691845f52815f20925f5b8181106105165750846005947ffa2aa14986556014428784e34ec912e4f5290b4965857b8455f2b3915ab0a49b9f9b98946104779b98946104859e9b98600195106104fe575b505050811b0190556103fb565b01515f1960f88460031b161c191690558f80806104f1565b929360206001819287860151815501950193016104ab565b835f5260205f20601f840160051c81019160208510610569575b601f0160051c01905b81811061055e575061039d565b5f8155600101610551565b9091508190610548565b634e487b7160e01b5f52604160045260245ffd5b015190508c80610360565b5f8581528281209350601f198516905b8181106105dd57509084600195949392106105c5575b505050811b019055610374565b01515f1960f88460031b161c191690558c80806105b8565b929360206001819287860151815501950193016105a2565b909150835f5260205f20601f840160051c8101916020851061063b575b90601f859493920160051c01905b81811061062d575061034a565b5f8155849350600101610620565b9091508190610612565b015190508e80610305565b5f8581528281209350601f198516905b81811061069b5750908460019594939210610683575b505050811b019055610319565b01515f1960f88460031b161c191690558e8080610676565b92936020600181928786015181550195019301610660565b909150835f5260205f20601f840160051c810191602085106106f9575b90601f859493920160051c01905b8181106106eb57506102ef565b5f81558493506001016106de565b90915081906106d0565b015190508e806102b0565b5f8981528281209350601f198516905b8181106107595750908460019594939210610741575b505050811b0185556102c4565b01515f1960f88460031b161c191690558e8080610734565b9293602060018192878601518155019501930161071e565b909150875f5260205f20601f840160051c810191602085106107b7575b90601f859493920160051c01905b8181106107a9575061029a565b5f815584935060010161079c565b909150819061078e565b634e487b7160e01b5f52601160045260245ffd5b60405162461bcd60e51b815260206004820152601f60248201527f5072696365206d7573742062652067726561746572207468616e207a65726f006044820152606490fd5b60405162461bcd60e51b8152602060048201526011602482015270131bd8d85d1a5bdb881c995c5d5a5c9959607a1b6044820152606490fd5b60405162461bcd60e51b815260206004820152600d60248201526c13985b59481c995c5d5a5c9959609a1b6044820152606490fd5b346100a4575f3660031901126100a4576020600154604051908152f35b60203660031901126100a457600435805f525f60205260405f20600581019081549060ff8260a01c1615610a09576002015434106109b9576001600160a01b0316338114610968575f808080938190341561095e575b3491f1156109535780546001600160a81b0319163360ff60a01b198116919091179091556040805192835260208301919091527fa1435aa83db340120f9c7f6c483b8dcd8db48e34b6ee738f80b164452aef362b91a1005b6040513d5f823e3d90fd5b6108fc91506108fb565b60405162461bcd60e51b815260206004820152602360248201527f4f776e65722063616e6e6f7420627579207468656972206f776e2070726f706560448201526272747960e81b6064820152608490fd5b60405162461bcd60e51b815260206004820152602260248201527f4e6f7420656e6f7567682045544820746f20627579207468652070726f706572604482015261747960f01b6064820152608490fd5b60405162461bcd60e51b815260206004820152602260248201527f50726f7065727479206973206e6f7420617661696c61626c6520666f722073616044820152616c6560f01b6064820152608490fd5b346100a45760c03660031901126100a4576004356024356001600160401b0381116100a457610a8c90369060040161122b565b6044356001600160401b0381116100a457610aab90369060040161122b565b906084356001600160401b0381116100a457610acb90369060040161122b565b60a4356001600160401b0381116100a457610aea90369060040161122b565b6002549093906001600160a01b03163303610f9d57845f525f60205260405f20928051906001600160401b038211610573578190610b288654611280565b601f8111610f4d575b50602090601f8311600114610eea575f92610edf575b50508160011b915f199060031b1c19161783555b805160018401916001600160401b038211610573578190610b7c8454611280565b601f8111610e8f575b50602090601f8311600114610e2c575f92610e21575b50508160011b915f199060031b1c19161790555b6064356002830155805160038301916001600160401b03821161057357610bd68354611280565b601f8111610ddc575b50602090601f8311600114610d75576004949392915f9183610d6a575b50508160011b915f199060031b1c19161790555b01908051906001600160401b03821161057357610c2d8354611280565b601f8111610d25575b50602090601f8311600114610c9d579180602094927f586b35ddcf669aa05fe0be2c12ca61ca8c325513c3af6613440000012823404596945f92610c92575b50508160011b915f199060031b1c19161790555b604051908152a1005b015190508680610c75565b90601f19831691845f52815f20925f5b818110610d0d57509260019285927f586b35ddcf669aa05fe0be2c12ca61ca8c325513c3af6613440000012823404598966020989610610cf5575b505050811b019055610c89565b01515f1960f88460031b161c19169055868080610ce8565b92936020600181928786015181550195019301610cad565b835f5260205f20601f840160051c81019160208510610d60575b601f0160051c01905b818110610d555750610c36565b5f8155600101610d48565b9091508190610d3f565b015190508780610bfc565b90601f19831691845f52815f20925f5b818110610dc4575091600193918560049897969410610dac575b505050811b019055610c10565b01515f1960f88460031b161c19169055878080610d9f565b92936020600181928786015181550195019301610d85565b835f5260205f20601f840160051c81019160208510610e17575b601f0160051c01905b818110610e0c5750610bdf565b5f8155600101610dff565b9091508190610df6565b015190508780610b9b565b5f8581528281209350601f198516905b818110610e775750908460019594939210610e5f575b505050811b019055610baf565b01515f1960f88460031b161c19169055878080610e52565b92936020600181928786015181550195019301610e3c565b909150835f5260205f20601f840160051c81019160208510610ed5575b90601f859493920160051c01905b818110610ec75750610b85565b5f8155849350600101610eba565b9091508190610eac565b015190508780610b47565b5f8781528281209350601f198516905b818110610f355750908460019594939210610f1d575b505050811b018355610b5b565b01515f1960f88460031b161c19169055878080610f10565b92936020600181928786015181550195019301610efa565b909150855f5260205f20601f840160051c81019160208510610f93575b90601f859493920160051c01905b818110610f855750610b31565b5f8155849350600101610f78565b9091508190610f6a565b60405162461bcd60e51b815260206004820152602260248201527f4f6e6c792061646d696e2063616e20706572666f726d2074686973206163746960448201526137b760f11b6064820152608490fd5b346100a45760203660031901126100a4576004355f525f60205261012260405f206040519061101b826111ef565b611024816112b8565b8252611032600182016112b8565b91602081019283526110b660028301549260408301938452610143611059600383016112b8565b60608501908152600561106e600485016112b8565b9384608088015201549561013060ff60018060a01b038916988960a08a015260a01c161515968760c082015251985191519251916040519a8b9a60e08c5260e08c01906111cb565b9160a084015260c08301520390f35b346100a45760203660031901126100a4577fe0b0bdc4765d42046204dd757d457eaa56159dbe02837b5075da30e9f95a3dd06020600435805f525f825261111c60018060a01b03600560405f200154163314611358565b5f818152808352604090819020600501805460ff60a01b1916905551908152a1005b346100a45760403660031901126100a4577f88b3e10fc821dcf6e0c9b8b02e38f5fff401bfab2172fb035d249c01f094de7d6040600435602435815f525f60205261119860018060a01b036005855f200154163314611358565b5f82815260208181529084902060028101839055600501805460ff60a01b1916600160a01b1790558351928352820152a1005b805180835260209291819084018484015e5f828201840152601f01601f1916010190565b60e081019081106001600160401b0382111761057357604052565b90601f801991011681019081106001600160401b0382111761057357604052565b81601f820112156100a4578035906001600160401b038211610573576040519261125f601f8401601f19166020018561120a565b828452602083830101116100a457815f926020809301838601378301015290565b90600182811c921680156112ae575b602083101461129a57565b634e487b7160e01b5f52602260045260245ffd5b91607f169161128f565b9060405191825f8254926112cb84611280565b808452936001811690811561133657506001146112f2575b506112f09250038361120a565b565b90505f9291925260205f20905f915b81831061131a5750509060206112f0928201015f6112e3565b6020919350806001915483858901015201910190918492611301565b9050602092506112f094915060ff191682840152151560051b8201015f6112e3565b1561135f57565b60405162461bcd60e51b815260206004820152601e60248201527f4f6e6c79206f776e65722063616e206d6f646966792070726f706572747900006044820152606490fdfea26469706673582212203bd53ec30f162d419acd0af59e3073ebd2df36f93fb4bfa2b9931b9d5c237a6164736f6c634300081b0033",
    "sourcePath": "/home/acer/MANU/Zillow_Dapp/hardhat/contracts/RealEstate.sol",
    "compiler": {
        "name": "solc",
        "version": "0.8.27+commit.40a35a09"
    },
    "functionHashes": {
        "addProperty(string,string,uint256,string,string)": "cdb96244",
        "admin()": "f851a440",
        "buyProperty(uint256)": "6fa830a6",
        "getProperty(uint256)": "32665ffb",
        "listPropertyForSale(uint256,uint256)": "0f55415b",
        "modifyPropertyDetails(uint256,string,string,uint256,string,string)": "634a015c",
        "properties(uint256)": "f7b10808",
        "propertyCount()": "c361a335",
        "removePropertyFromSale(uint256)": "1f476a76"
    },
    "gasEstimates": {
        "creation": {
            "codeDepositCost": "1016400",
            "executionCost": "25297",
            "totalCost": "1041697"
        },
        "external": {
            "addProperty(string,string,uint256,string,string)": "infinite",
            "admin()": "2445",
            "buyProperty(uint256)": "infinite",
            "getProperty(uint256)": "infinite",
            "listPropertyForSale(uint256,uint256)": "50095",
            "modifyPropertyDetails(uint256,string,string,uint256,string,string)": "infinite",
            "properties(uint256)": "infinite",
            "propertyCount()": "2358",
            "removePropertyFromSale(uint256)": "27713"
        }
    }
}